{
    "blockHeight": 1583763,
    "blockHash": "b3e1641b8cf3e211c5c1956b864fea16a821cbb5ec9d9b2a0ac76ca1453e9534",
    "blockTime": 1526881087,
    "blockTxs": [
        "d40851a0434d4f9748bb0d6995221f55af95ea6999463ce325edfcad3d67cf8e",
        "96c942f797a9cd421ee08049e3f3ce021d243b272dc4595e0f11f368b58016f8",
        "b7724cdac78bd4d8ec7e19c9c7b53adfd095afc4ae478fc79a7936a0a6a4a29b",
        "293b0f5e9c9639242600ecff0f749348bb8fa3c8e23e67c88b3bcc7a348fdc56",
        "aef30c865a51375fb9200c832328457a93d5092bdec3c12e143dd35e69e56c6c",
        "1693312ff8225e0271aadb713dade853889e47d3e79e055c56465c54b9b3a2ff"
    ],
    "txDetails": {
        "b7724cdac78bd4d8ec7e19c9c7b53adfd095afc4ae478fc79a7936a0a6a4a29b": {
            "hex": "01000000eb5a025b0137699807c5b6e84c9fd558226c723f4b33aa53421456535b4431d0434b9d6dea010000006b483045022100ca490f7225874a7177a33c920b5a6ca2fa0e23e5aa6a59d8345335d92d3b478702202ce6504c93c643f15071e2051dc6b39ff2262cff4caef86a3403dac8197219fb012103b23813d1e0e783e825fe3a754935e0d060e6e4c6ace28a3e28fe91ac92585d95ffffffff0278499fe3078b00001976a914c1cd13a152e14586714e3081f7b02563fc3fbefb88ac00ca9a3b000000001976a9144ede88857a16efb6a088c7add2687c40d250875788ac00000000",
            "txid": "b7724cdac78bd4d8ec7e19c9c7b53adfd095afc4ae478fc79a7936a0a6a4a29b",
            "blocktime": 1526881087,
            "time": 1526881003,
            "locktime": 0,
            "version": 1,
            "vin": [
                {
                    "txid": "ea6d9d4b43d031445b5356144253aa334b3f726c2258d59f4ce8b6c507986937",
                    "vout": 1,
                    "sequence": 4294967295,
                    "scriptSig": {
                        "hex": "483045022100ca490f7225874a7177a33c920b5a6ca2fa0e23e5aa6a59d8345335d92d3b478702202ce6504c93c643f15071e2051dc6b39ff2262cff4caef86a3403dac8197219fb012103b23813d1e0e783e825fe3a754935e0d060e6e4c6ace28a3e28fe91ac92585d95"
                    }
                }
            ],
            "vout": [
                {
                    "value": 1528659.99899000,
                    "n": 0,
                    "scriptPubKey": {
                        "hex": "76a914c1cd13a152e14586714e3081f7b02563fc3fbefb88ac"
                    }
                },
                {
                    "value": 10.00000000,
                    "n": 1,
                    "scriptPubKey": {
                        "hex": "76a9144ede88857a16efb6a088c7add2687c40d250875788ac"
                    }
                }
            ]
        },
        "96c942f797a9cd421ee08049e3f3ce021d243b272dc4595e0f11f368b58016f8": {
            "hex": "010000003f5b025b01d027c7a63bc1ef178f498e3422931ab751ba9aa3154d4c82cb4fda9ceca3c875020000004847304402200a7a11ae56ee1f812d5df81ba883e6811170df453fb76d50cd926c4cb0e2316602200d3373c81e0fef357669ac98285bd6dbb93eb97fcf4272c840e05d7dc48bab0701ffffffff02000000000000000000115eebda38000000232102671b0856204b7f027b961e419b304cc3d34dc43cdcad2ef7e0f343fe4c1383bdac00000000",
            "txid": "96c942f797a9cd421ee08049e3f3ce021d243b272dc4595e0f11f368b58016f8",
            "blocktime": 1526881087,
            "time": 1526881087,
            "locktime": 0,
            "version": 1,
            "vin": [
                {
                    "txid": "75c8a3ec9cda4fcb824c4d15a39aba51b71a9322348e498f17efc13ba6c727d0",
                    "vout": 2,
                    "sequence": 4294967295,
                    "scriptSig": {
                        "hex": "47304402200a7a11ae56ee1f812d5df81ba883e6811170df453fb76d50cd926c4cb0e2316602200d3373c81e0fef357669ac98285bd6dbb93eb97fcf4272c840e05d7dc48bab0701"
                    }
                }
            ],
            "vout": [
                {
                    "value": 0.00000000,
                    "n": 0,
                    "scriptPubKey": {
                        "hex": ""
                    }
                },
                {
                    "value": 2441.91026705,
                    "n": 1,
                    "scriptPubKey": {
                        "hex": "2102671b0856204b7f027b961e419b304cc3d34dc43cdcad2ef7e0f343fe4c1383bdac"
                    }
                }
            ]
        }
    }
}
